:100BCD000F084D616465204279204D61204A756E94
:100BDD0000081730303A30302E3000081F30303AD0
:050BED0031302E300044
:10080000752800752901E4F52AF52BF52CF52DF551
:100810002EF52FF530F531F532F533120BF37F80DD
:10082000120C20E4F52774082527F8E6FF120C2A9D
:100830000527E527C3940F40ED20B40675320075F7
:100840003301E5334532701B7FC0120C20E4F527DD
:1008500074172527F8E6FF120C2A0527E527C3940D
:100860000840EDE53364014532701B7FC0120C2057
:10087000E4F527741F2527F8E6FF120C2A0527E563
:1008800027C3940840ED20B2057F02120C2020B34C
:10089000066331FF6330FFE53345326003020A3BF4
:1008A00030B003020A3BE4F5277FC6120C20E5278F
:1008B0002430FF120C2A7F647E00120BB420B11585
:1008C000A2B1B330B101B3500920B20320B2FD2070
:1008D000B2EE30B20C30B2090527E527C3940940C7
:1008E000C820B203020A357FC6120C207F39120CD1
:1008F0002A7F507E00120BB4E5314530600BD29058
:100900007F147E00120BB4800BC2907F147E001205
:100910000BB4D2907FC4120C20C3E529940AE528B9
:10092000648094804008E529640A4528700F0529F1
:10093000E52970020528142430FF120C2AD3E5297A
:10094000940AE52864809480401875280075290170
:100950007FC4120C207F30120C2A052BE52B70026D
:10096000052A7FC3120C20C3E52B9406E52A648078
:1009700094804008E52B6406452A7008E52B243056
:10098000FF120C2AD3E52B9406E52A64809480405C
:1009900018752A00752B017FC3120C207F30120CB2
:1009A0002A052DE52D7002052C7FC1120C20C3E510
:1009B0002D940AE52C648094804008E52D640A4556
:1009C0002C7008E52D2430FF120C2AD3E52D940A53
:1009D000E52C648094804018752C00752D017FC132
:1009E000120C207F30120C2A052FE52F7002052EE5
:1009F0007FC0120C20C3E52F9406E52E64809480FE
:100A00004008E52F6406452E7008E52F2430FF12BC
:100A10000C2AD3E52F9406E52E64809480500302BF
:100A200008A6752E00752F017FC0120C207F301292
:100A30000C2A0208A620B203020B16E53364014516
:100A400032600302081E20B2057F02120C2030B073
:040A500003020B0F83
:100A54007534007535017FC3120C207F30120C2AC7
:100A64007FC6120C207F30120C2A7F647E00120B8A
:100A7400B4E5354534600A7FC4120C207F39120C6A
:100A84002AE4F5277FC6120C20C374399527FF1278
:100A94000C2A7F647E00120BB40527E527C3940A51
:100AA40040E27FC4120C20C3E529940AE52864803F
:100AB400948050170529E5297002052814FFC37492
:100AC400399FFF120C2AE4F534F535E529640A450B
:100AD400287017F5287529017FC4120C207F301265
:100AE4000C2A052BE52B7002052AE52B6401452A07
:100AF4007010C2907F64FE120BB4D29020B2FD300D
:0B0B0400B20630B203020A5A30B207FA
:070B0F0030B20302081E22B0
:010B160022BC
:100BA300C2A58F807F017E00120BB4D2A77F057E82
:010BB3000041
:100BB400D3EF9400EE9400400F7DC77C01DCFEDD92
:080BC400FAEF1F70EB1E80E840
:010BCC002206
:0A0C2000C2A7C2A6120BA3C2A722AE
:0A0C2A00C2A7D2A6120BA3C2A72294
:100BF3007F38120C207F0C120C207F06120C207FF2
:090C030001120C207F80020C207C
:100C0C0020B305D290D2B322C2907F0A7E00120B81
:040C1C00B4D290229C
:03000000020B17D9
:0C0B1700787FE4F6D8FD758135020B5E96
:100B2300020800E493A3F8E493A34003F68001F2E0
:100B330008DFF48029E493A3F85407240CC8C333D3
:100B4300C4540F4420C8834004F456800146F6DFA2
:100B5300E4800B0102040810204080900BCDE47E5A
:100B6300019360BCA3FF543F30E509541FFEE49397
:100B7300A360010ECF54C025E060A840B8E493A35E
:100B8300FAE493A3F8E493A3C8C582C8CAC583CA89
:100B9300F0A3C8C582C8CAC583CADFE9DEE780BE41
:010BF2000002
:00000001FF
